:03000000020033C8
:1000330075818075D54475A000C290E4F500E50094
:1000430012007DF586D29005A07400D5E0FDC29024
:10005300E5AA53E08060F9E5861200690500C3E56F
:1000630000945040D92222752005740075F000D504
:10007300F0FDD5E0F7D520F20022248BF582740041
:100083003400F5837400932252504D3A31303234A8
:1000930035204D41503A313033204D41543A3131BE
:1000A30030204241543A31322E3420202020202067
:1000B3000D0A0A45474F3A31342E36202054505307
:1000C3003A31303020414E473A33302020434C54AC
:0B00D3003A313038202020202020206F
:00000001FF
