:0600000002003302003390
:03000B00020033BD
:03001300020033B5
:03001B00020033AD
:03002300020033A5
:03002B000200339D
:100033007581801202D312024375540075550085F1
:100043004356854457755BC61204C8120493740360
:100053002557F543855A56855B57755B0A1204C8C5
:10006300120493E5574430F55E75F000E543120240
:10007300DC85514F85525085535175522E855E5301
:1000830074501203067404120306E54F120306E5C7
:1000930050120306E551120306E552120306E55317
:1000A300120306745A12030675300075315D7532FA
:1000B300C01204E78534F0E5351202DC74501203F4
:1000C300067401120306E54F120306E550120306F8
:1000D300E551120306E552120306E55312030674B3
:1000E3005A12030675F000E5361202DC745012034F
:1000F300067405120306E551120306E552120306C0
:10010300E553120306745A12030675F000E537121D
:1001130002DC74501203067406120306E55112033F
:1001230006E552120306E553120306745A12030638
:10013300E53875F00584C5F0C3334430F55FC5F089
:1001430075F0001202DC85525085535175522E858D
:100153005F5374501203067408120306E55012032A
:1001630006E551120306E552120306E55312030690
:10017300745A12030675540075550085415685421D
:1001830057755B641204C87554001204938556F0C6
:10019300E5571202DC74501203067402120306E5DB
:1001A30051120306E552120306E553120306745A6D
:1001B300120306755400755500853B56853C5775EB
:1001C3005B0F1204C812049385575C855A56855BEE
:1001D30057755B641204C81204938556F0E55712F1
:1001E30002DC85525D85535E75F000E55C1202DC2E
:1001F30085524F85535075512E855D52855E5374DC
:10020300501203067407120306E54F120306E55066
:10021300120306E551120306E552120306E55312D3
:100223000306745A12030674201203060139756219
:1002330016740075F000D5F0FDD5E0F7D562F22213
:10024300783B7900E9120255A64E08A64D0809B974
:1002530008F2D2B3C2B1C2B300D2B3C2B6C2B300C2
:10026300D2B3F580C2B300D2B3D2B6C2B300D2B315
:10027300D2B1C2B31202CA7580FFD2B3C2B1C2B344
:1002830000D2B3C2B7C2B30085804DD2B3D2B7C2D6
:10029300B300D2B3D2B1C2B300D2B3D2B2C2B300AD
:1002A300D2B3C2B1C2B300D2B3C2B7C2B300858066
:1002B3004E00D2B3D2B7C2B300D2B3D2B1C2B300ED
:1002C300D2B3C2B2C2B322D2B300C2B330B0F822A7
:1002D30075D54475B0F3513122C00078537554007D
:1002E30075550085F056F557755800755900755AC0
:1002F30000755B0A120314E55B4430F618B84EE848
:10030300D00022F586B290E5AA53E08060F9E58635
:1003130022C004C003C002C001C0007504207503DD
:100323000075020075010075000012038F1203A50A
:100333004022C3E5039558403A7019C3E502955925
:1003430040317010C3E501955A40287007C3E5009A
:10035300955B401FC3E500955BF500E501955AF5F4
:1003630001E5029559F502E5039558F503E557D2E2
:10037300E0F557DCB585035885025985015A850098
:100383005BD000D001D002D003D00422C3E55733A1
:10039300F557E55633F556E55533F555E55433F53D
:1003A3005422E50033F500E50133F501E50233F5A9
:1003B30002E50333F50322C002C001C00075021B2E
:1003C30075010075000012040312041D4010C3E5FB
:1003D30001955A401C7007C3E500955B4013C3E5C4
:1003E30000955BF500E501955AF501E557D2E0F577
:1003F30057DAD385015A85005BD000D001D00222A1
:10040300C3E55733F557E55633F556E55533F555FB
:10041300E5543392E35407F55422E50033F500E540
:100423000133F50122C002C001C000750216750137
:10043300007500001204711204844010C3E5019595
:100443005A401C7007C3E500955B4013C3E5009554
:100453005BF500E501955AF501E557D2E0F557DA6A
:10046300D385015A85005BD000D001D00222C3E5B9
:100473005733F557E55633F556E55533F55592E6BB
:1004830022E50033F500E5013392E6543FF50122FE
:1004930085575B85565A535A0F1204B81204B81283
:1004A30004B81204B853540F8556578555568554CE
:1004B3005575540022E55413F554E55513F555E5E8
:1004C3005613F55622E556855BF0A4F55685F0558F
:1004D300E557855BF0A4F557C5F02556F556E43589
:1004E30055F555221205751205981205B5E53654D2
:1004F300F0C4C5F0E53754F025F0F5F01205DAF84D
:10050300E5F0240130D605E8F90205131205DAF9FE
:10051300E5F024105007E8FAE9FB020536F5F0127E
:1005230005DAFAE5F0240130D605EAFB02053612B6
:1005330005DAFB88F0E9AC36120553F88AF0EBAC28
:1005430036120553FA88F0EAAC37120553F5382210
:10055300C0F0C223C395F05005F42401D223F5F073
:10056300EC540FA454F0C4302303F42401D0F02539
:10057300F02275540775552775560E755700E530EB
:10058300B4000B85315A85325B71BA0205918556E9
:100593003485573522C3E5359490F556E5349401F7
:1005A300F555755700C3755A25755B809128855796
:1005B3003622755400755500C3E54394285001E471
:1005C300F556755700755800755900755A00755BD7
:1005D300A071148557372224E8F58274053400F599
:1005E3008374009322111123465F5F666666666615
:1005F3006666585858111123465F5F6666666666DD
:100603006666585858111123465F5F6666666666CC
:100613006666585858111123465F5F6666666666BC
:100623006666585858111123465F5F6666666666AC
:100633006666585858111123465F5F66666666669C
:100643006666585858111123465F5F66666666668C
:100653006666585858111123465B5B626262626298
:1006630062625454541111234651515858585858E2
:100673005858585858111123464A4A51515151510B
:10068300515151515111111C3846464A4A4A4A4A5E
:100693004A4A4A4A4A11111C343F3F4343434343A6
:1006A300434343434311111C3438383C3C3C3C3CEA
:1006B3003C3C3C3C3C11111C2A2D2D313131313154
:1006C300313131313111111C3438383C3C3C3C3C24
:1006D3003C3C3C3C3C11111C2A2D2D313131313134
:0506E30031313131311D
:00000001FF
